:02000002D0002C
:1040000000400D00B05C0D00000006000C00050132
:0840100004014E040000000051
:10401800CC580D0009480A49884208B505D0094A14
:10402800824202D0121A01F009FC0748074A00210F
:10403800121A01F00EFC014808BD00BF4CE3032032
:10404800205C0D00B4E30320B4E30320F0E7032071
:1040580070B501F04DF8074C074BE41AA408002589
:104068001E46A54204D056F8253098470135F8E792
:1040780070BD00BF205C0D00E45B0D0000F014B8BB
:1040880008B500F01FF8BDE8084000F0FFBF00F0D9
:1040980075BB00F073BB0078B0FA80F04009704738
:1040A800012303707047000008B500F06DFF4FF45E
:1040B800165100F05DFF0248BDE8084000F084B8E2
:1040C800B8E3032030B5184C85B0204600F066F9F7
:1040D800204610EE105A00F083F98DED030A00F027
:1040E80053FF0446284601F047FB104ACDE900017A
:1040F8000121204600F010FE00F046FF9DED030A66
:10410800044610EE100A01F037FB094ACDE9000118
:104118000121204600F000FE42F2107005B0BDE813
:10412800304000F03BBB00BFB8E30320E0580D006F
:10413800E9580D0008B500F09DF906220221024851
:10414800BDE8084000F03AB8B8E3032010B50368AA
:104158002F2B044604D9074A00210A2000F082FACE
:1041680023681F2B83BF03F01F03236002484FF00F
:10417800A04010BD5D440D000003005007B502AB20
:1041880043F8040D1846FFF7E1FF019A0123934015
:10419800C0F8083503B05DF804FB07B502AB43F877
:1041A800040D1846FFF7D2FFD0F81035019823FA0E
:1041B80000F000F0010003B05DF804FB0272012278
:1041C800817102747047000010B50021044680799F
:1041D80000F0CCFF074AA37912681B01D118D05C04
:1041E8004B7803F01F0343EA4010FFF7C7FF002393
:1041F800E36010BDCCE303202DE9F74F044600F03F
:1042080031F9E368834284BF0023E360237C33B938
:10421800E368C01AB0F5FA6F01D20120A8E00025C2
:10422800554E257400F01EF9A3793268E0601B0131
:10423800D1182571E570A57065702570D05C4B7834
:1042480003F01F0343EA4010FFF798FFFA2000F03D
:10425800A5FA0121A07900F089FFA37932681B0132
:10426800D118D25C4B7802A803F01F0343EA42132B
:1042780040F8043DFFF76AFF019B4FF0010808FA78
:1042880003F3C0F80C35142000F088FA00F012FB94
:10429800A37932681B01D118D05C4B7803F01F0357
:1042A80043EA4010FFF76AFF282000F0D3F82946B8
:1042B800A07900F05BFF2F464FF0000BA37932681E
:1042C8001B01D11812F803A04B7803F01F0343EA2F
:1042D8004A1A5046FFF761FF5046FFF75EFF8045D8
:1042E8005FFA8BF908D101200BF1010B00F0B2F84D
:1042F800BBF1FF0FE2D1D946A37932681B01D1186F
:1043080012F803804B7803F01F0343EA481840462D
:10431800FFF743FF4046FFF740FFB9F1FF0F5FFA91
:1043280080F814D0032D0ED9EB070CD4FA08013706
:10433800A35C5B00DBB2A354217A49453CBF43F040
:104348000103A354FFB20135EDB2552DB4D100F0ED
:10435800B3FA272F0BD92278637821791344A278EE
:104368001344E2781344DBB299423FF456AF00207D
:1043780003B0BDE8F08F00BFCCE3032010B50446BE
:10438800FFF73AFF28B1A37800EE103AB8EE400ADA
:1043980010BD9FED010A10BD0000C07F08B5FFF7F2
:1043A800EDFFF2EE027A60EE277AB1EE047A87EE3C
:1043B800870ADFED027A30EE270A08BD00000042C6
:1043C80010B50446FFF718FF28B1237800EE103A1D
:1043D800B8EE400A10BD9FED010A10BD0000C07F75
:1043E800FFF7EEBF08B500F045F8014B186008BDAF
:1043F800CCE3032008B5024B1B689B68019308BDFA
:104408004802030008B5024B1B681B69019308BDED
:104418004802030008B5024B1B685B69019308BD9D
:104428004802030008B5024B1B681B6B019308BDCB
:104438004802030008B5024B1B685B6C019308BD7A
:104448004802030008B5024B1B685B68019308BD6E
:104458001802030008B5024B1B68DB68019308BD0E
:104468001802030008B5024B1B685B69019308BD7D
:104478001802030008B5024B1B681B68019308BDAE
:104488002C02030008B5024B1B689B68019308BD0A
:104498002C02030008B5024B1B681B6A019308BD78
:1044A8002C02030008B5024B1B685B6A019308BD28
:1044B8002C02030008B5024B1B681B6A019308BD58
:1044C8002802030008B5024B1B685B6A019308BD0C
:1044D8002802030008B5024B1B689B6A019308BDBC
:1044E8002802030008B5024B1B68DB6A019308BD6C
:1044F8002802030008B5024B1B681B6B019308BD1B
:104508002802030008B5024B1B685B6B019308BDCA
:104518002802030008B5024B1B681B6C019308BDF9
:104528002802030008B5024B1B685B69019308BDAC
:104538006402030008B5024B1B689B68019308BD21
:104548006802030008B5024B1B68DB68019308BDCD
:104558006802030008B5024B1B68DB69019308BDBC
:104568003002030008B5024B1B681B6A019308BDA3
:104578003002030008B5024B1B681B68019308BD95
:104588003C02030008B5024B1B68DB68019308BDB9
:104598003C02030008B5024B1B681B69019308BD68
:1045A8003C02030008B5024B1B685B69019308BD18
:1045B8003C02030008B5024B1B689B69019308BDC8
:1045C8003C02030008B5024B1B68DB69019308BD78
:1045D8003C02030008B5024B1B681B6A019308BD27
:1045E8003C02030008B5024B1B689B6A019308BD97
:1045F8003C02030008B5024B1B681B68019308BD09
:104608004C02030008B5024B1B685B68019308BDA8
:104618004C02030008B5024B1B681B69019308BDD7
:104628004C02030008B5024B1B685B69019308BD87
:104638004C02030008B5024B1B689B69019308BD37
:104648004C02030008B5024B1B68DB69019308BDE7
:104658004C02030008B5024B1B681B6A019308BD96
:104668004C02030008B5024B1B685B6B019308BD45
:104678006002030008B5024B1B685B68019308BD24
:104688002002030008B5024B1B685B69019308BD53
:104698002002030008B5034B1B68D3F88830019348
:1046A80008BD00002002030008B5034B1B68D3F8BF
:1046B8009430019308BD00002002030008B5024BA6
:1046C8001B68DB6B019308BD4402030008B5024B6D
:1046D8001B685B68019308BD4002030008B5024BE4
:1046E8001B689B68019308BD4002030008B5024B94
:1046F8001B68DB68019308BD4002030008B5024B44
:104708001B681B69019308BD4002030008B5024BF2
:104718001B685B69019308BD4002030008B5024BA2
:104728001B689B69019308BD4002030008B5024B52
:104738001B68DB69019308BD4002030008B5024B02
:104748001B681B6A019308BD4002030008B5024BB1
:104758001B681B6B019308BD4002030008B5024BA0
:104768001B685B6B019308BD4002030008B5024B50
:104778001B681B68019308BD1C02030008B5024BA7
:104788001B685B68019308BD1C02030008B5024B57
:104798001B685B6A019308BD1C0203000021FFF738
:1047A80071BF10B58368044613B1032201469847C8
:1047B800204610BD002211464068FFF7BFBF002207
:1047C80011464068FFF7CABF00224068FFF7BEBF26
:1047D800002281F001014068FFF7A8BF00231A46B4
:1047E80019464068FFF79ABF00231A4619464068E1
:1047F800FFF78CBF002211464068FFF77FBF0022F9
:1048080011464068FFF76ABF002202214068FFF79F
:104818006DBF00231A464068FFF758BF024B0322BA
:104828005A60024A1A607047D0E3032000590D000D
:104838007047F8B5064615460C468F18BC4206D098
:10484800336814F8011B9B6830469847F6E72846FA
:10485800F8BD0022007CFFF72DBE0021007CFFF789
:1048680031BE0021007CFFF735BE0021007CFFF738
:1048780039BE0021007CFFF73DBE10B50446FFF7A6
:1048880006FC204610BD000010B504464FF47A73AC
:104898000846A3600021044B207461602360FFF781
:1048A80039FE204610BD00BF34590D000021007CA0
:1048B800FFF728BEFFF7F6BDFFF7ECBD704710B550
:1048C8000446FFF7E4FB204610BDF0B5037D062B38
:1048D8008DB00E4600F104074FF0000402D000F13D
:1048E800080518E00CAD394605F8304D2F232A4647
:1048F8000A20FFF717FE284600F0DCFF336802465F
:10490800DB682946304698470FE024B12E2130460F
:1049180000F0C4F9044415F8011D0A22304600F0DD
:10492800F9F9BD420444F0D120460DB0F0BD0000B5
:1049380010B5054B0446112240F8043B002100F055
:1049480088FF204610BD00BF5C590D000346074A8A
:1049580010B543F8042B01F1100251F8044B43F849
:10496800044B9142F9D10A781A7010BD5C590D00B8
:1049780010B59DF8084044EA032343EA024242EA9C
:10498800016104234160037510BD37B50D788B783C
:104998004A78C97800912946FFF7EAFF03B030BD8D
:1049A800014B024A1A607047D8E303201E5A0D00D3
:1049B800002211464068FFF7C1BE00221146406838
:1049C800FFF7CCBE00224068FFF7C0BE002281F08E
:1049D80001014068FFF7AABE00231A46194640683D
:1049E800FFF79CBE00231A4619464068FFF78EBEA3
:1049F800002211464068FFF781BE00221146406838
:104A0800FFF76CBE002202214068FFF76FBE00234B
:104A18001A464068FFF75ABE38B5054678B10468AB
:104A280044B1A3681BB1032221462046984720467B
:104A3800FFF72DFB2846BDE83840FFF728BB38BDF7
:104A480010B103685B681847704710B503680446DF
:104A5800BBB15868FFF7CEFC78B923685A7C12B905
:104A68005868FFF7CFFC23685868FFF7D3FC206825
:104A78000023236028B1FFF7CFFF206808B1FFF7B4
:104A8800CBFF204610BD000038B50B4B0360044631
:104A9800D0F8CC0108B1FFF7FCFAD4F8C4512DB115
:104AA8002846FFF7D2FF2846FFF7F1FAA06808B1B9
:104AB800FFF7C6FF204638BD505A0D0038B50D4CDB
:104AC8000D4B23600025022304F5E4706360A560A4
:104AD800C4F8C451C4F8C851FFF7ACFC074BC4F87C
:104AE800CC5123602046064A0649BDE8384000F00C
:104AF80091BB00BFDCE30320845A0D00505A0D001F
:104B0800B4E30320914A0D0000231A464068FFF7DA
:104B1800DDBD002202214068FFF7E8BD00221146F2
:104B28004068FFF7DBBD002211464068FFF7E6BD8D
:104B380000231A4619464068FFF7E8BD00231A46C5
:104B480019464068FFF7EABD002281F0010140687C
:104B5800FFF7ECBD00224068FFF7F8BD00221146C0
:104B68004068FFF7FBBD002211464068FFF7E6BD2D
:104B78002DE9F043002495B016460D460746FFF789
:104B8800D7FE214620220CA8009400F062FE4023A4
:104B98000C9321466B460CAA3046FFF7D3FC04461B
:104BA800002844D1024601216868FFF7A7FD0221C9
:104BB800804622466868FFF7A1FD009E814621468F
:104BC800002E34D0002932D17368022B02D00A2B70
:104BD80009D02AE0B8F1000F27D0716938460431AE
:104BE800FFF7D3FE20E0B9F1000F1ED0746911223F
:104BF80001A800F02EFE06238DF8143001AD04F153
:104C080008031834186859682A4603C20833A342AF
:104C18001546F7D101A906A807ADFFF797FE0FCDF6
:104C28003C1D0FC42B6823700121F669C8E7009862
:104C3800FFF780FC384615B0BDE8F083024B034A05
:104C48001A6000225A607047ACE50320845A0D00B0
:104C5800F8B506460D468F180024BD420CD03368BF
:104C680015F8011B9B6830469847002801DB04446F
:104C7800F3E7002C08BF04462046F8BD70B505468A
:104C88000C46084649B100F015FE2B68024621463D
:104C98002846DB68BDE87040184770BD03689B680C
:104CA800184738B50D210546FFF7F8FF0A210446D5
:104CB8002846FFF7F3FF204438BD30B58BB00B46CC
:104CC80000218DF82410012A98BF0A220DF123042F
:104CD800B3FBF2F505FB123303F0FF03092B94BF76
:104CE80030333733DBB2214604F801392B46002D27
:104CF800EED1FFF7C3FF0BB030BD10B42AB903687B
:104D08005DF8044B9B68C9B21847D2B25DF8044BF2
:104D1800FFF7D3BFFFF7F1BF0CB42DE9F04387B01D
:104D280000AF07F13804054654F8049B3C600E4672
:104D380023464A461421381DFFF728FD132805D8B5
:104D4800391D2846FFF79AFF044613E000F10803CF
:104D580023F00703E846ADEB030D411C23464A4602
:104D680068463C60FFF712FD69462846FFF786FF54
:104D78000446C5461EB12846FFF793FF0444204663
:104D88001C37BD46BDE8F04302B0704710B5044675
:104D9800FFF707FD204610BD0348044A04490023D5
:104DA800836000F037BA00BFB4E50320B4E3032002
:104DB800954D0D00704710B50446FFF768F9204679
:104DC80010BD000070B5084B0360044600250E4670
:104DD80040F80C5FFFF726FB30462671FFF7BAFB59
:104DE800A560204670BD00BFB85A0D000079FFF7D6
:104DF800B9BB0000044B00204FF6FF7218705880B2
:104E08009A80FFF737BC00BFC4E50320024B1A683D
:104E1800024B1A60704700BF4CE30320CCE5032027
:104E2800704741747047007CFFF7DCBB007CFFF7DC
:104E3800B1BB007CFFF7BEBB007CFFF7B3BB007CB7
:104E4800FFF7C0BB10B50446FFF721F9204610BD97
:104E580070B5457C04460E4625B9007CFFF7C2FBB9
:104E6800002805DD3146207CBDE87040FFF78ABB8D
:104E7800284670BD10B504460846114600226260F7
:104E88004FF47A72A260054A22600122207462748B
:104E98001A46FFF76FFB204610BD00BFF45A0D00FD
:104EA800007CFFF797BB000038B50C4D296811F05E
:104EB800010411D12846FFF7EEF868B1084A094BFA
:104EC80009482146FFF7D6FF2846FFF7E9F8074AC1
:104ED8000749054800F09EF9034838BD68E60320F5
:104EE8006CE60320E4E50320D0E50320B4E30320C7
:104EF800294E0D004174704770470021007CFFF770
:104F080099BB0121007CFFF795BB007CFFF78ABBAA
:104F1800007CFFF77FBB38B50446007C0D46FFF7E1
:104F280081FB002801DC607C20B12946207CFFF74A
:104F380089FB012038BD007CFFF78CBB10B5044607
:104F4800FFF7A5F8204610BD10B50446002363609E
:104F58004FF47A73A360054B23600123084621743C
:104F680063741146FFF746FB204610BD245B0D0015
:104F78000022007CFFF746BB10B51422044600212E
:104F880000F067FC204610BD30B50E4D87B001A873
:104F9800FFF7F2FF296811F0010410D12846FFF746
:104FA8007AF860B101AA21460748FFF7CDFF2846E5
:104FB800FFF776F8054A0649034800F02BF902483E
:104FC80007B030BDF0E60320F4E60320B4E3032085
:104FD800014F0D00002211464068FFF78FBB0022E9
:104FE80011464068FFF7AABB002211464068FFF748
:104FF800B5BB00224068FFF7A9BB002281F0010180
:105008004068FFF793BB00231A4619464068FFF72C
:1050180085BB00231A4619464068FFF777BB002274
:1050280011464068FFF75ABB002202214068FFF78B
:105038005DBB00231A464068FFF748BB024B0422B9
:105048005A60024A1A60704708E70320545B0D0053
:1050580008B50C4B33B1FFF797FF03681B699847F6
:10506800002809DC084B63B1FFF71EFF03681B69C2
:105078009847002803DC08BDAFF30080F2E7AFF3E0
:10508800008008BD000000000000000008B5FFF720
:10509800DFFFFFF7E7F9014B186008BD14E70320AD
:1050A80007B5002300931A466FF07701FFF7FCFA63
:1050B80003B05DF804FB000007B543880A2B08D04D
:1050C800502B09D1094B1B683BB103B05DF804EBC9
:1050D8001847FFF7E5FF06E0002300931A466FF034
:1050E8007701FFF7E1FA03B05DF804FB10E703204E
:1050F80010B5FFF7A7F9044600F0B4FB074B13B14E
:105108002046AFF3008000210448FFF7D7FA0021BA
:105118000348BDE81040FFF7BDBA00BF000000001B
:10512800C1500D0010B504460F48FFF75FFE28B1C7
:10513800A4F10B03022B01D8002010BD00F028F8C1
:10514800FFF7B4FB08B1012CF6D9FFF7ADFEFFF766
:10515800A7FE18B1A4F10903012BEDD9232C8CBFAC
:105168000020012010BD00BF30E70320232838B5F8
:1051780004460D460AD8FF2908D0FFF7D3FF28B107
:1051880029462046BDE83840FFF77CB938BD000005
:1051980038B50B4D296811F001040FD12846FEF7E8
:1051A8007AFF58B121460748FFF76EFB2846FEF7FD
:1051B80077FF054A0549034800F02CF8014838BD37
:1051C80018E703201CE70320B4E3032039480D0047
:1051D80070B50C4C0C4E0D4D00212046FFF7F2FD2A
:1051E80020460B4C3246294600F014F8012120468F
:1051F800FFF7E8FD324629462046BDE8704000F03A
:1052080009B800BF30E70320B4E30320BD4D0D000B
:1052180040E703200B460146184600F001BB00009A
:10522800244B1A68D0075CBF01221A60224B1A6807
:10523800D1075CBF01221A60204B1A68D2075CBFF5
:1052480001221A601E4B1A68D0075CBF01221A603F
:105258001C4B1A68D1075CBF01221A601A4B1A68E6
:10526800D2075CBF01221A60184B1A68D0075CBFCE
:1052780001221A60164B1A68D1075CBF01221A6016
:10528800144B1A68D2075CBF01221A60124B1A68C5
:10529800D0075CBF01221A60104B1A68D1075CBFA7
:1052A80001221A600E4B1A68D2075CBF01221A60ED
:1052B800704700BF7CE7032078E7032074E70320EA
:1052C80070E703206CE7032068E7032064E7032006
:1052D80060E703205CE7032058E7032054E7032036
:1052E80050E70320184B1A68D1075CBF01221A60E7
:1052F800164B1A68D2075CBF01221A60144B1A6851
:10530800D0075CBF01221A60124B1A68D1075CBF34
:1053180001221A60104B1A68D2075CBF01221A607A
:105328000E4B1A68D0075CBF01221A600C4B1A6832
:10533800D1075CBF01221A600A4B1A68D2075CBF0A
:1053480001221A60704700BF9CE7032098E70320FA
:1053580094E7032090E703208CE7032088E70320E5
:1053680084E7032080E70320184B1A68D1075CBF45
:1053780001221A60164B1A68D2075CBF01221A6014
:10538800144B1A68D0075CBF01221A60124B1A68C6
:10539800D1075CBF01221A60104B1A68D2075CBFA4
:1053A80001221A600E4B1A68D0075CBF01221A60EE
:1053B8000C4B1A68D1075CBF01221A600A4B1A68A5
:1053C800D2075CBF01221A60704700BFBCE7032008
:1053D800B8E70320B4E70320B0E70320ACE70320D5
:1053E800A8E70320A4E70320A0E70320244B1A68BA
:1053F800D0075CBF01221A60224B1A68D1075CBF34
:1054080001221A60204B1A68D2075CBF01221A6079
:105418001E4B1A68D0075CBF01221A601C4B1A6821
:10542800D1075CBF01221A601A4B1A68D2075CBF09
:1054380001221A60184B1A68D0075CBF01221A6053
:10544800164B1A68D1075CBF01221A60144B1A6800
:10545800D2075CBF01221A60124B1A68D0075CBFE2
:1054680001221A60104B1A68D1075CBF01221A602A
:105478000E4B1A68D2075CBF01221A60704700BF42
:10548800ECE70320E8E70320E4E70320E0E7032054
:10549800DCE70320D8E70320D4E70320D0E7032084
:1054A800CCE70320C8E70320C4E70320C0E70320B4
:1054B80081F0004102E000BF83F0004330B54FEABD
:1054C80041044FEA430594EA050F08BF90EA020F2A
:1054D8001FBF54EA000C55EA020C7FEA645C7FEABD
:1054E800655C00F0E2804FEA5454D4EB5555B8BFE0
:1054F8006D420CDD2C4480EA020281EA030382EA51
:10550800000083EA010180EA020281EA0303362DE2
:1055180088BF30BD11F0004F4FEA01314FF4801CB5
:105528004CEA113102D0404261EB410113F0004FC7
:105538004FEA03334CEA133302D0524263EB43037E
:1055480094EA050F00F0A780A4F10104D5F1200E1C
:105558000DDB02FA0EFC22FA05F2801841F1000177
:1055680003FA0EF2801843FA05F359410EE0A5F14B
:1055780020050EF1200E012A03FA0EFC28BF4CF07C
:10558800020C43FA05F3C01851EBE37101F0004532
:1055980007D54FF0000EDCF1000C7EEB00006EEB3F
:1055A8000101B1F5801F1BD3B1F5001F0CD34908C9
:1055B8005FEA30004FEA3C0C04F101044FEA445220
:1055C80012F5800F80F09A80BCF1004F08BF5FEAA7
:1055D800500C50F1000041EB045141EA050130BD87
:1055E8005FEA4C0C404141EB010111F4801FA4F12A
:1055F8000104E9D191F0000F04BF01460020B1FA7F
:1056080081F308BF2033A3F10B03B3F120020CDAB6
:105618000C3208DD02F1140CC2F10C0201FA0CF094
:1056280021FA02F10CE002F11402D8BFC2F1200CF9
:1056380001FA02F120FA0CFCDCBF41EA0C019040AF
:10564800E41AA2BF01EB0451294330BD6FEA0404F8
:105658001F3C1CDA0C340EDC04F11404C4F12002E3
:1056680020FA04F001FA02F340EA030021FA04F3F5
:1056780045EA030130BDC4F10C04C4F1200220FA4C
:1056880002F001FA04F340EA0300294630BD21FA8A
:1056980004F0294630BD94F0000F83F4801306BF50
:1056A80081F480110134013D4EE77FEA645C18BF44
:1056B8007FEA655C29D094EA050F08BF90EA020FDB
:1056C80005D054EA000C04BF1946104630BD91EAD3
:1056D800030F1EBF0021002030BD5FEA545C05D1D6
:1056E8004000494128BF41F0004130BD14F5800415
:1056F8003CBF01F5801130BD01F0004545F0FE4189
:1057080041F470014FF0000030BD7FEA645C1ABFBD
:10571800194610467FEA655C1CBF0B46024650EAF4
:10572800013406BF52EA033591EA030F41F4002120
:1057380030BD00BF90F0000F04BF0021704730B5A6
:105748004FF4806404F132044FF000054FF000017B
:1057580050E700BF90F0000F04BF0021704730B53C
:105768004FF4806404F1320410F0004548BF404211
:105778004FF000013EE700BF42004FEAE2014FEA66
:1057880031014FEA02701FBF12F07F4393F07F4F41
:1057980081F06051704792F0000F14BF93F07F4F73
:1057A800704730B54FF4607401F0004521F00041B6
:1057B80020E700BF50EA010208BF704730B54FF03C
:1057C80000050AE050EA010208BF704730B511F041
:1057D800004502D5404261EB41014FF4806404F179
:1057E80032045FEA915C3FF4DCAE4FF003025FEAFB
:1057F800DC0C18BF03325FEADC0C18BF033202EB83
:10580800DC02C2F1200300FA03FC20FA02F001FADC
:1058180003FE40EA0E0021FA02F11444C1E600BF7B
:1058280010B5054C13462CB10A4601460220AFF3C9
:10583800008010BD204610BD0000000010B5431EBA
:105848000A44914204D011F8014B03F8014FF8E7DC
:1058580010BD02440346934202D003F8011BFAE745
:105868007047000038B5124B1C68A36B0546D3B9C6
:105878001820FEF77BFF43F20E33A06303804AF63D
:10588800CD33438041F2342383804EF26D63C3806D
:105898004DF6EC630381052343810B2383810122A9
:1058A8000023C0E90423A36B00221D615A6138BD9F
:1058B800B0E30320034613F8012B002AFBD1181A82
:1058C800013870471D400D0059400D0085400D00FE
:1058D80089400D000000000054656D703A2025666F
:1058E8000048756D69646974793A2025660000007E
:1058F80000000000000000001B480D0011480D00CA
:1059080007480D00FD470D00F1470D00E5470D0064
:10591800D9470D00D1470D00C7470D00BD470D0001
:10592800794B0D00000000000000000039480D0010
:1059380083480D005B480D003B480D0063480D008F
:105948006B480D0073480D007B480D0000000000F7
:1059580000000000D3480D00C5480D00C7480D00E1
:105968006C6E00666E00636F6465006465746169DF
:105978006C000D0A00253031307520005D200025AF
:1059880064002C200028293A2000205B00636F6403
:1059980065203D200025690064657461696C732089
:1059A8003D2000626175640053657269616C005343
:1059B800657269616C31007479706500706172613B
:1059C8006D00636D6400696400686E6400737472CE
:1059D8006D0066696C74006C766C00616464486183
:1059E8006E646C65720072656D6F766548616E6491
:1059F8006C657200656E756D48616E646C65727376
:105A0800004A534F4E53747265616D4C6F6748611D
:105A18006E646C657200617070006E6F6E65007404
:105A28007261636500696E666F007761726E00650A
:105A380072726F720070616E696300616C6C000055
:105A48000000000000000000174A0D000D4A0D007C
:105A5800034A0D00F9490D00ED490D00E1490D001B
:105A6800D5490D00CD490D00C3490D00B9490D00B8
:105A7800794B0D000000000000000000114B0D00E4
:105A88001B4B0D00254B0D002F4B0D00394B0D0006
:105A9800454B0D00514B0D005D4B0D00654B0D0046
:105AA8006F4B0D00794B0D00000000000000000056
:105AB800BD4D0D00BF4D0D005A00252B3033643A03
:105AC800253032750025592D256D2D25645425481E
:105AD8003A254D3A2553257A0061736374696D65DB
:105AE800000000000000000000000000294E0D002A
:105AF8004D4E0D00594E0D00594C0D00354E0D0000
:105B0800414E0D003B4E0D00474E0D002B4E0D0033
:105B18002F4E0D000000000000000000014F0D0096
:105B2800454F0D001F4F0D00594C0D00194F0D002A
:105B3800034F0D000B4F0D003F4F0D00134F0D008D
:105B4800FD4E0D0000000000000000003B500D005D
:105B580031500D0027500D00DD4F0D001B500D007A
:105B68000F500D0003500D00FB4F0D00F14F0D00BD
:105B7800E74F0D00794B0D00000000000000000009
:105B8800000000000000000000000000000000000D
:105B980000000000000000000000000000000000FD
:105BA80000000000000000000000000000000000ED
:105BB80000000000000000000000000000000000DD
:105BC80000000000000000000000000000000000CD
:105BD8000000000000000000430000003D410D00EF
:105BE800ED430D0025480D00A9490D00C54A0D00DB
:105BF800454C0D00A14D0D00FD4D0D00154E0D003D
:105C080045500D00D9510D0029520D00ED520D00DF
:085C180071530D00F5530D005E
:105C2000E15A0D0000000000805B0D00A05B0D003C
:105C3000C05B0D000000000000000000000000003C
:105C400000000000E05B0D0000000000000000000C
:105C50000000000000000000000000000000000044
:105C60000000000000000000000000000000000034
:105C70000000000000000000000000000000000024
:085C80000000000050E30320C6
:105C8800FFFFFFFF00000102030405060708090AD9
:105C98000B0C0D0E0F101112131415161718191AD4
:085CA8001B1C1D1E1F2028001B
:045CB00078563412DC
:04000003D0004018D1
:00000001FF
